:100000000C9446000C9465000C9465000C946500FB
:100010000C9465000C9465000C9465000C946500CC
:100020000C9465000C9465000C9465000C946500BC
:100030000C9465000C9465000C9465000C946500AC
:100040000C941E020C9465000C9465000C946500E1
:100050000C9465000C9465000C9465000C9465008C
:100060000C9465000C9465000C9465000C9465007C
:100070000C9465000C9465000C9465000C9465006C
:100080000C9465000C9465000C94650011241FBE4F
:10009000CFEFD0E1DEBFCDBF13E0A0E0B1E0E8EFED
:1000A000FDE100E00BBF02C007900D92AE32B10738
:1000B000D9F713E0AEE2B3E001C01D92AE3EB10746
:1000C000E1F70E9467000C94FA0E0C9400000E9465
:1000D000FD010E9470010E9417020E9496020E9478
:1000E00087020E94AF020E94B2030E9497040E94FE
:1000F0000F020E94BD020E94DD0186E393E00E9490
:10010000C1010E94CA0390932F0380932E0383B3EF
:10011000809335030E94920580912E0390912F03C6
:100120008431910508F074C00E94D5028FEF97E4E6
:100130000197F1F700C000000E9477018FEF9FE167
:10014000A1E081509040A040E1F700C000000E9473
:1001500079018FEF9FE1A1E081509040A040E1F74D
:1001600000C000000E94CC028FEF9FE7A4E0815006
:100170009040A040E1F700C000000E94C0028FEF55
:100180009FEFA8E081509040A040E1F700C0000040
:100190000E94BD028FEF9FEBAFE081509040A040E6
:1001A000E1F700C000000E94C3028FEF9FEFA8E0BC
:1001B00081509040A040E1F700C000000E94BD02C5
:1001C0008FEF9FE7A6E181509040A040E1F700C08B
:1001D00000000E94C30286E696ECA8E081509040A1
:1001E000A040E1F70E94BD0282E393E1AFE08150BD
:1001F0009040A040E1F700C000C00E94C0028FEF15
:100200009FEDA7E081509040A040E1F700C00000C2
:1002100080913503883CA0F5863C08F04FC08039BA
:10022000E0F48E3808F04AC08F3709F453C08038A4
:1002300050F48E3008F45DCF803108F43FC08F3326
:1002400009F057CF3BC08338C9F1843808F451CF47
:100250008658823008F04DCF31C08A3B58F4883B35
:1002600090F58E3908F445CF803A40F1813B09F092
:1002700040CF29C08E3B08F43CCF803CF8F039CF0A
:10028000803F70F48E3E08F034CF803E30F48E3DD7
:10029000A8F48E3C09F02DCF11C0843EA0F029CFE8
:1002A000883F30F4863F08F024CF833F60F021CFB1
:1002B0008E3F48F08E3F09F01CCF0FC00E945503BF
:1002C0000E94C90204C00E9455030E94C6020E94F7
:1002D000FA0211CF0E94C3020ECF0E94C0020BCFC0
:1002E000129A1A9880E091E00E94E90108951A9A02
:1002F00008951A980895DF93CF93CDB7DEB7CF91C5
:10030000DF910895DF93CF93CDB7DEB78D819E81C6
:10031000019664E670E00E94D00B21E030E04F814E
:1003200058858417950711F020E030E0C901CF917E
:10033000DF910895DF93CF93CDB7DEB721E030E0B2
:100340004D815E818F8198854817590711F020E013
:1003500030E0C901CF91DF910895FC01462F8081E3
:100360009181019664E670E00E94D00B2281338176
:100370008217930729F091838083E80FF91F448344
:100380000895FC01828193812081318128173907EA
:1003900011F480E00895019664E670E00E94D00BAD
:1003A00093838283E80FF91F8481089590919B00C5
:1003B00095FFFCCF80939C00089580919B0087FF60
:1003C00007C060919C0086E393E00E94AD01F5CFE9
:1003D0000895EF92FF92CF93DF93E82EE7017E011D
:1003E000F92EE70102C00E94D60189918823D9F72E
:1003F000DF91CF91FF90EF9008958BEF81BB88E163
:1004000080939A0086E080939D001092980083E08C
:100410008093990084E191E00E94E9010895C29AD5
:100420000895C2980895C39A0895C39808958FEFC8
:1004300087BB86E291E00E94E90108951F920F9226
:100440000FB60F920BB60F9211242F933F934F9339
:100450005F936F937F938F939F93AF93BF93CF934C
:10046000DF93EF93FF9386E082BF809132039091F8
:100470003303883C910569F500D000D000D0EDB77A
:10048000FEB73196CEE9D3E0ADB7BEB71296DC9396
:10049000CE93119787E391E09383828380912E031B
:1004A00090912F03958384830E941A0C8DB79EB779
:1004B00006960FB6F8949EBF0FBE8DBFCE010E9468
:1004C000E901809135030E94920510923303109246
:1004D000320380913203909133030196909333035A
:1004E00080933203FF91EF91DF91CF91BF91AF9154
:1004F0009F918F917F916F915F914F913F912F913C
:100500000F900BBE0F900FBE0F901F90189583B7E2
:10051000846083BF82B7866082BF87B7816087BFF0
:1005200078948CE491E00E94E90108958FB5836A84
:100530008FBD8EB582608EBDEAE7F0E0808180835A
:100540008CB59DB59DBD8CBD8FEF93E09BBD8ABDE5
:1005500099BD88BD80E691E00E94E901089587B3C6
:10056000806687BB88B3806688BB8AB38F608ABB8E
:1005700088E791E00E94E901089586E08BBB089529
:100580008AE08BBB089585E08BBB089582E08BBB2E
:10059000089584E08BBB089589E08BBB089581E0CA
:1005A0008BBB089588E08BBB08958BB3807F8BBB9A
:1005B00008951F93182F70E0882777FD8095982F56
:1005C0000E94A80824E13EEA43E251E40E947E072B
:1005D0000E94AA05113051F0113018F0123041F488
:1005E00003C079BD68BD04C079BD68BD7BBD6ABD6F
:1005F0001F910895EF92FF920F931F93DF93CF9374
:10060000CDB7DEB7A8970FB6F894DEBF0FBECDBF4B
:10061000609198018E010F5F1F4F8BE8E82E81E0FB
:10062000F82E6B35C0F46B5F6093980182E00E94F6
:10063000D90200D000D000D0EDB7FEB73196ADB7EB
:10064000BEB712961C930E931197F382E2828091AB
:10065000980184830FC000D000D000D0EDB7FEB762
:100660003196ADB7BEB712961C930E931197F382D5
:10067000E282648315820E941A0C8DB79EB706969B
:100680000FB6F8949EBF0FBE8DBFC8010E94E9014E
:10069000A8960FB6F894DEBF0FBECDBFCF91DF9105
:1006A0001F910F91FF90EF900895EF92FF920F939B
:1006B0001F93DF93CF93CDB7DEB7A8970FB6F8940B
:1006C000DEBF0FBECDBF60919801862F8A508E018C
:1006D0000F5F1F4F9BE8E92E91E0F92E8B35C0F498
:1006E00065506093980182E00E94D90200D000D04A
:1006F00000D0EDB7FEB73196ADB7BEB712961C93DA
:100700000E931197F382E2828091980184830FC047
:1007100000D000D000D0EDB7FEB73196ADB7BEB770
:1007200012961C930E931197F382E28264831582D2
:100730000E941A0C8DB79EB706960FB6F8949EBF0E
:100740000FBE8DBFC8010E94E901A8960FB6F894AC
:10075000DEBF0FBECDBFCF91DF911F910F91FF90F4
:10076000EF90089510926100109262000895806CDD
:1007700087B987EA86B9369A349BFECF349A24B17A
:1007800030E045B117B816B8942F80E0282B392BEC
:10079000C90108951F9380E00E94B703A5EAB1E064
:1007A000E0E050E002C0E52F542F2D913D918217DB
:1007B000930730F4452F4F5F4E30A9F7E52F01C066
:1007C000452F50E0F0E0DF01AF53BE4F1C91EE0F1C
:1007D000FF1FEB55FE4F608171819B01281B390B78
:1007E000FA01EE0FFF1FEB55FE4F80819181FB0157
:1007F000E81BF90BCF014F535E4FFA016081611B7B
:1008000070E00E94BC0B70E0C9010E94BC0B610F3C
:10081000711DCB011F9108950F931F93DF93CF9309
:10082000CDB7DEB764970FB6F894DEBF0FBECDBF6D
:1008300000D000D000D0EDB7FEB731968E010F5F2B
:100840001F4FADB7BEB712961C930E93119729E9AF
:1008500031E033832283958384830E941A0C8DB701
:100860009EB706960FB6F8949EBF0FBE8DBFC80107
:100870000E94E90164960FB6F894DEBF0FBECDBFAB
:10088000CF91DF911F910F91089590E044E0880F80
:10089000991F4A95E1F7209165002160209365003A
:1008A000E3E3F7E03197F1F72091650022602093B0
:1008B0006500E3E3F7E03197F1F7209165002D7FC4
:1008C00020936500E3E3F7E03197F1F720916500AD
:1008D0002E7F20936500E3E3F7E03197F1F720E105
:1008E00030916500326030936500E3E3F7E03197C3
:1008F000F1F797FF04C030916500346003C0309178
:1009000065003B7F30936500E3E3F7E03197F1F753
:10091000309165003D7F30936500E3E3F7E0319768
:10092000F1F7215019F0880F991FDACF0895AF928F
:10093000BF92CF92DF92EF92FF920F931F93DF93BC
:10094000CF93CDB7DEB728970FB6F894DEBF0FBEB2
:10095000CDBF10926100109262008FEF809364000F
:100960008E010F5F1F4F88E0D8011D928A95E9F72D
:1009700080E00E94450484E00E94B7037C019A83D2
:10098000898385E00E94B7039C838B8386E00E9465
:10099000B7039E838D8387E00E94B70398878F8378
:1009A000F8019E01275F3F4F670181919191E81601
:1009B000F90608F47C018C159D0508F46C01E2171A
:1009C000F30799F700D000D000D0EDB7FEB731960D
:1009D00006EC13E0ADB7BEB712961C930E931197B9
:1009E0008FEC91E093838283F582E4820E941A0C5B
:1009F000EDB7FEB736960FB6F894FEBF0FBEEDBF4B
:100A0000C8010E94E90100D000D000D0EDB7FEB7C8
:100A10003196ADB7BEB712961C930E93119781EE27
:100A200091E093838283D582C4820E941A0CEDB731
:100A3000FEB736960FB6F894FEBF0FBEEDBFC801E5
:100A40000E94E901EC0CFD1CF694E79400D000D064
:100A500000D0EDB7FEB73196ADB7BEB712961C9376
:100A60000E93119783EF91E093838283F582E48262
:100A70000E941A0CEDB7FEB736960FB6F894FEBF7B
:100A80000FBEEDBFC8010E94E90100D000D000D028
:100A9000ADB6BEB60894A11CB11CADB7BEB71296D8
:100AA0001C930E93119785E092E0F5019383828366
:100AB000B70180E090E00E945A092CEC3CEC4CE439
:100AC00050E40E947E070E94AA05D50114966C93FB
:100AD000149715961C920E941A0CEDB7FEB7369625
:100AE0000FB6F894FEBF0FBEEDBFC8010E94E9012A
:100AF00081E00E9445048FEF9FE80197F1F700C065
:100B0000000028960FB6F894DEBF0FBECDBFCF9180
:100B1000DF911F910F91FF90EF90DF90CF90BF90EA
:100B2000AF9008950F931F93082F18E007FF02C09E
:100B300081E301C080E30E94D601115011F0000F43
:100B4000F5CF8DE00E94D6018AE00E94D6011F9168
:100B50000F910895EF92FF920F931F937B018C01E9
:100B600020E030E040E05FE40E94780887FD11C09B
:100B7000C801B70120E030E040E05FE40E944D078B
:100B80000E9408099B01AC01205030404040504871
:100B900006C0C801B7010E9408099B01AC01B90158
:100BA000CA011F910F91FF90EF900895A0E0B0E06F
:100BB000ECEDF5E00C94E70BFC01EA01808182305A
:100BC00008F438C1DB019C91923008F430C18430C4
:100BD00059F4943009F02EC1918111968C9111979E
:100BE000981709F021C126C1943009F420C1923030
:100BF000B1F4823009F01EC1CA01AF0128E0DA0168
:100C00000D90AD01DC010D92CD012150C1F7DB014A
:100C100011968C9111979181892389830AC1823021
:100C200009F405C1C280D380DB0112966D907C90DF
:100C3000139724813581468157811496ED90FD905C
:100C40000D911C911797C601861997095C0197FFB2
:100C500004C0AA24BB24A81AB90AB0E2AB16B10496
:100C60000CF061C0181619066CF5370148010A2C02
:100C700004C096948794779467940A94D2F781E09D
:100C800090E0A0E0B0E00A2C04C0880F991FAA1FD2
:100C9000BB1F0A94D2F70197A109B1098E219F21A8
:100CA000A023B123EE24FF248701E3940097A1053C
:100CB000B10519F4EE24FF248701E628F728082956
:100CC00019293CC00097D1F1CA0CDB1C39014A013B
:100CD0000A2C04C096948794779467940A94D2F768
:100CE00081E090E0A0E0B0E00A2C04C0880F991FDA
:100CF000AA1FBB1F0A94D2F70197A109B109822349
:100D00009323A423B52321E030E040E050E0009796
:100D1000A105B10519F420E030E0A9012629372901
:100D2000482959290BC06C147D0424F4EE24FF24B7
:100D3000870104C0630120E030E0A9018181FB014B
:100D40009181891709F445C0882349F0D801C7016A
:100D5000821B930BA40BB50B9C01AD0104C02E1993
:100D60003F09400B510B57FD04C01982DB82CA8238
:100D70000BC081E08983DB82CA8250954095309513
:100D800021953F4F4F4F5F4F2C833D834E835F83B1
:100D90000DC0880F991FAA1FBB1F8C839D83AE8334
:100DA000BF838A819B8101979B838A838C819D81EC
:100DB000AE81BF819C01AD01215030404040504088
:100DC0002F3FEFEF3E07EFEF4E07EFE35E0708F32D
:100DD0000BC08983DB82CA822E0D3F1D401F511F2D
:100DE0002C833D834E835F8383E088832C813D8108
:100DF0004E815F8157FF1DC0DA01C901817090707B
:100E0000A070B0705695479537952795822B932BF8
:100E1000A42BB52B8C839D83AE83BF838A819B815A
:100E200001969B838A8305C0E6E2F2E003C0FB01E2
:100E300001C0FE01CF01CDB7DEB7EEE00C94030C8C
:100E4000A0E2B0E0E6E2F7E00C94EF0B69837A836E
:100E50008B839C832D833E834F83588789E0E82EC4
:100E6000F12CEC0EFD1ECE010196B7010E94FA0A8C
:100E70008E010F5E1F4FCE010596B8010E94FA0A3F
:100E8000C701B801AE01475E5F4F0E94D6050E94C0
:100E90002C0AA096E6E00C940B0CA0E2B0E0E3E58F
:100EA000F7E00C94EF0B69837A838B839C832D830B
:100EB0003E834F8358878E01075F1F4FCE010196F7
:100EC000B8010E94FA0A91E1E92EF12CEC0EFD1E08
:100ED000CE010596B7010E94FA0A8A8991E0892716
:100EE0008A8BC801B701AE01475E5F4F0E94D605ED
:100EF0000E942C0AA096E6E00C940B0CA0E2B0E055
:100F0000E4E8F7E00C94E30B69837A838B839C839A
:100F10002D833E834F835887CE010196BE01675FC4
:100F20007F4F0E94FA0ACE010596BE016F5E7F4F89
:100F30000E94FA0A9985923078F089898230C0F04F
:100F4000943019F4823041F4CBC0843019F49230DB
:100F500079F4C6C0923051F481E02A859A89291724
:100F600009F480E08A87CE010996BCC0823051F432
:100F700081E02A859A89291709F480E08A8BCE01BD
:100F80004196B0C06D847E848F849888ED88FE88F9
:100F90000F89188DE0E2F0E080E090E0DC01AA2407
:100FA000BB24650120E030E0A901B30161707070DD
:100FB00061157105D1F02E0D3F1D401F511F150108
:100FC0002601280E391E4A1E5B1E81E090E0A0E03B
:100FD000B0E02E153F054007510718F080E090E083
:100FE000DC01820D931DA41DB51DAA0CBB1CCC1CDD
:100FF000DD1C17FF09C061E0262E312C412C512C3D
:10100000A228B328C428D528319749F0EE0CFF1C3C
:10101000001F111F9694879477946794C6CF6B89AD
:101020007C89EB85FC856E0F7F1F6E5F7F4F7C8F09
:101030006B8F61E0EA857A89E71709F460E06A8FCF
:101040006B8D7C8D10C0FC01E170F070309729F041
:1010500056954795379527955068B695A7959795D6
:1010600087956F5F7F4FB7FDEECF0CC0880F991F3C
:10107000AA1FBB1F57FD8160220F331F441F551F3E
:10108000615070408030E0E09E07E0E0AE07E0E4B1
:10109000BE0760F36B8F7C8F6FE7E62EF12C012D7E
:1010A000112DE822F9220A231B2360E4E616F1043D
:1010B0000105110561F487FD0AC0211531054105BF
:1010C000510529F0805C9F4FAF4FBF4F80788D8FC7
:1010D0009E8FAF8FB8A383E0898FCE01499602C05F
:1010E00086E292E00E942C0AA096E2E10C94FF0BAB
:1010F000A8E1B0E0EEE7F8E00C94EF0B69837A83A7
:101100008B839C832D833E834F8358878E01075F9B
:101110001F4FCE010196B8010E94FA0A81E1E82E24
:10112000F12CEC0EFD1ECE010596B7010E94FA0AC5
:101130008985823040F08989823028F0C801B70162
:101140000E94630B01C08FEF6896E6E00C940B0CD5
:10115000A8E0B0E0EEEAF8E00C94EF0B7B018C0124
:1011600083E08983D801C7018827B7FD8395992734
:10117000AA27BB27282F8A83E114F1040105110552
:1011800019F482E0898337C08EE190E09C838B83E1
:10119000222389F080E0E81680E0F80680E0080766
:1011A00080E8180769F110950095F094E094E11C2F
:1011B000F11C011D111DED82FE820F831887C801ED
:1011C000B7010E94D2099C0121503040121613062B
:1011D00094F4022E04C0EE0CFF1C001F111F0A9491
:1011E000D2F7ED82FE820F8318878EE190E0821B9A
:1011F000930B9C838B83CE0101960E942C0A04C022
:1012000060E070E080E09FEC2896E6E00C940B0C28
:10121000ACE0B0E0EEE0F9E00C94F30B69837A8384
:101220008B839C83CE010196BE016B5F7F4F0E9432
:10123000FA0A8D81823081F1823070F1843021F49C
:101240008E81882369F10AC02F81388537FD24C03B
:101250006E812F3131053CF0662311F120E030E042
:1012600040E050E821C08EE190E0821B930B29857D
:101270003A854B855C8504C05695479537952795EB
:101280008A95D2F7662381F0509540953095219547
:101290003F4F4F4F5F4F08C020E030E0A90104C02E
:1012A0002FEF3FEF4FEF5FE7B901CA012C96E2E065
:1012B0000C940F0CA8E0B0E0E0E6F9E00C94ED0B24
:1012C0007B018C011A82611571058105910519F464
:1012D00082E089835FC083E089838EE1C82ED12CB0
:1012E000DC82CB82ED82FE820F831887C801B701B2
:1012F0000E94D209FC013197F7FF3AC0AA27BB2709
:10130000AE1BBF0B21E030E040E050E00A2E04C0ED
:10131000220F331F441F551F0A94D2F7215030402B
:10132000404050402E213F214023512361E070E096
:1013300080E090E0211531054105510519F460E088
:1013400070E0CB0104C016950795F794E794AA9531
:10135000D2F7E62AF72A082B192BED82FE820F839B
:1013600018878EE190E08E1B9F0B9C838B8312C0AD
:10137000309781F00E2E04C0EE0CFF1C001F111FD1
:101380000A94D2F7ED82FE820F831887CE1ADF0A05
:10139000DC82CB82CE0101960E942C0A2896E8E0DE
:1013A0000C94090CAF92BF92CF92DF92EF92FF9212
:1013B0000F931F937B018C0180E0E81680E0F80614
:1013C00081E0080780E0180758F4EFEFEE16F1040B
:1013D0000105110509F090F480E090E0DC0117C0F0
:1013E000F0E0EF16F0E0FF06F0E00F07F1E01F0776
:1013F00050F480E190E0A0E0B0E009C088E090E027
:10140000A0E0B0E004C088E190E0A0E0B0E020E21D
:1014100030E040E050E0281B390B4A0B5B0B5701D2
:10142000680104C0D694C794B794A7948A95D2F75C
:10143000D601C501825D9D4FFC018081281B3109C9
:1014400041095109C9011F910F91FF90EF90DF9061
:10145000CF90BF90AF900895EF92FF920F931F939C
:10146000CF93DF93FC0124813581468157816181CF
:101470008081823020F44061EFEFF0E0A3C084303F
:1014800009F49BC0823009F492C021153105410551
:10149000510509F48FC00280F381E02D8FEFE2380F
:1014A000F8070CF05AC0C2E8DFEFCE1BDF0BCA31E1
:1014B000D1056CF579018A010C2E04C016950795AB
:1014C000F794E7940A94D2F781E090E0A0E0B0E0CE
:1014D0000C2E04C0880F991FAA1FBB1F0A94D2F7B5
:1014E0000197A109B10982239323A423B52321E005
:1014F00030E040E050E00097A105B10519F420E08C
:1015000030E0A9012E293F29402B512B03C020E0B8
:1015100030E0A901DA01C9018F779070A070B07036
:1015200080349105A105B10539F427FF09C0205C7D
:101530003F4F4F4F5F4F04C0215C3F4F4F4F5F4FB6
:10154000E1E0F0E0203080E0380780E0480780E408
:10155000580728F5E0E0F0E022C0E038F1056CF52E
:10156000E158FF4FDA01C9018F779070A070B07019
:1015700080349105A105B10539F427FF09C0205C2D
:101580003F4F4F4F5F4F04C0215C3F4F4F4F5F4F66
:1015900057FF05C05695479537952795319687E0B3
:1015A00056954795379527958A95D1F70BC0E0E07A
:1015B000F0E005C0E0E0F0E005C0EFEFF0E020E093
:1015C00030E0A9018E2F879588278795942F9F77E4
:1015D000679566276795E695E22EA92FA82BFE2F23
:1015E000F62B622F732F8A2F9F2FCDB7DEB7E6E041
:1015F0000C940B0CDC01FB012C9111963C91119782
:1016000012968C911297482F4F7750E0982F991F80
:101610009927991F13966C911397862F880F892B02
:1016200090E0661F6627661F6183009739F52115D4
:1016300031054105510511F482E029C082E89FEF90
:101640009383828367E0220F331F441F551F6A95DF
:10165000D1F783E0808309C0220F331F441F551F39
:1016600082819381019793838283203080E03807C1
:1016700080E0480780E4580778F320C08F3F910549
:1016800079F4211531054105510519F484E0808371
:10169000089544FF03C081E0808310C010820EC013
:1016A0008F5790409383828383E0808387E0220F6B
:1016B000331F441F551F8A95D1F750642483358307
:1016C000468357830895FC01DB019081923008F432
:1016D00049C08C91823008F445C0943051F4618146
:1016E0008430B1F511962C91119730E0261B310909
:1016F00041C0843021F0923041F48230B1F1119632
:101700008C9111978823A1F12DC06181823001F164
:1017100011968C9111976817D9F422813381129612
:101720008D919C9113978217930794F0281739078E
:10173000BCF0248135814681578114968D919D910D
:101740000D90BC91A02D82179307A407B50718F43C
:10175000662341F00DC0281739074A075B0728F4B4
:10176000662331F021E030E005C020E030E002C027
:101770002FEF3FEFC9010895AA1BBB1B51E107C022
:10178000AA1FBB1FA617B70710F0A61BB70B881F11
:10179000991F5A95A9F780959095BC01CD010895A0
:1017A00097FB092E07260AD077FD04D0E5DF06D087
:1017B00000201AF4709561957F4F0895F6F7909583
:1017C00081959F4F08952F923F924F925F926F9213
:1017D0007F928F929F92AF92BF92CF92DF92EF92C1
:1017E000FF920F931F93CF93DF93CDB7DEB7CA1B42
:1017F000DB0B0FB6F894DEBF0FBECDBF09942A886D
:10180000398848885F846E847D848C849B84AA8414
:10181000B984C884DF80EE80FD800C811B81AA81A1
:10182000B981CE0FD11D0FB6F894DEBF0FBECDBF6C
:10183000ED0108950F931F93DF93CF93CDB7DEB7DC
:101840002E970FB6F894DEBF0FBECDBF0D891E894F
:1018500086E08C831A8309838FEF9FE79E838D83B5
:101860009E01275E3F4FCE0101966F89788DA901B9
:101870000E944A0CEF81F885E00FF11F10822E962E
:101880000FB6F894DEBF0FBECDBFCF91DF911F9191
:101890000F9108952F923F924F925F926F927F9295
:1018A0008F929F92AF92BF92CF92DF92EF92FF9270
:1018B0000F931F93DF93CF93CDB7DEB72C970FB65F
:1018C000F894DEBF0FBECDBF6C011B018A01FC0185
:1018D00017821682838181FFD1C12E010894411C99
:1018E000511CF6019381F10193FD859193FF819144
:1018F0001F01882309F4BEC1853239F493FD859117
:1019000093FF81911F01853229F490E0B6010E9476
:10191000700EE7CFEE24FF2420E02032B0F48B32AB
:1019200069F08C3228F4803251F0833271F40BC0AC
:101930008D3239F0803349F421602CC0226024605C
:1019400029C0286027C0206125C027FD2CC0382F62
:1019500030533A3098F426FF08C08E2D880FE82EB9
:10196000EE0CEE0CE80EE30E15C08F2D880FF82E4E
:10197000FF0CFF0CF80EF30E20620CC08E3221F427
:1019800026FD78C1206406C08C3611F4206802C0A0
:10199000883649F4F10193FD859193FF81911F01F0
:1019A000882309F0BACF982F9554933018F09052AD
:1019B000933028F40C5F1F4FFFE3F9830DC083368B
:1019C00031F0833771F0833509F060C022C0F8012F
:1019D000808189830E5F1F4F420171E0A72EB12CD9
:1019E00016C062E0662E712C600E711EF8018080B8
:1019F000918026FF03C06E2D70E002C06FEF7FEF75
:101A0000C4012C870E94650E5C0183012C852F7711
:101A100017C052E0652E712C600E711EF801808097
:101A2000918026FF03C06E2D70E002C06FEF7FEF44
:101A3000C4012C870E945A0E5C012C85206883010A
:101A400023FD20C008C080E290E0B6012C870E94F0
:101A5000700EFA942C858F2D90E0A816B90698F395
:101A600011C0F40127FD859127FF81914F0190E07E
:101A7000B6012C870E94700E2C85F110FA94089400
:101A8000A108B108A114B10461F7F1C0843611F0C6
:101A9000893649F527FF08C0F8016081718182818C
:101AA00093810C5F1F4F09C0F80160817181882705
:101AB00077FD8095982F0E5F1F4F4FE6B42EB22210
:101AC00097FF09C090958095709561957F4F8F4FD6
:101AD0009F4FF0E8BF2AA2012AE030E00E949C0E4E
:101AE000782E741845C0853731F43FEEB32EB222FC
:101AF0002AE030E025C099EFB92EB2228F36C1F02E
:101B0000803720F4883509F0B5C00DC0803721F04A
:101B1000883709F0AFC002C020E1B22AB4FE0BC082
:101B200084E0B82A08C0B4FE09C0E6E0BE2A06C0B8
:101B300028E030E005C020E130E002C020E132E0E2
:101B4000B7FE08C0F80160817181828193810C5FCA
:101B50001F4F07C0F8016081718180E090E00E5F47
:101B60001F4FA2010E949C0E782E7418FFE7BF221F
:101B7000B6FE0BC02EEFB2227E1438F4B4FE07C0BE
:101B8000B2FC05C08FEEB82202C0A72C01C0AE2C5B
:101B90008B2D90E0B4FE0DC0FE01E70DF11D2081FC
:101BA000203319F4E9EEBE2209C0A394B2FE06C0A8
:101BB00004C086789070009709F0A3948B2C992428
:101BC000B3FC14C0B0FE0FC0AF1428F4E72CEF0C28
:101BD000EA18AF2C08C0E72C06C080E290E0B601FE
:101BE0000E94700EA394AF14C0F304C0AF1410F49D
:101BF000FA1801C0FF2484FE0FC080E390E0B60114
:101C00000E94700E82FE1FC081FE03C088E590E036
:101C100010C088E790E00DC0C401867890700097EE
:101C200091F081FC02C080E201C08BE2B7FC8DE242
:101C300090E0B6010E94700E06C080E390E0B6010D
:101C40000E94700EEA947E14C0F37A94F201E70DBC
:101C5000F11D808190E0B6010E94700E7720A9F7F7
:101C600006C080E290E0B6010E94700EFA94FF2058
:101C7000C1F737CEF6012681378102C02FEF3FEF43
:101C8000C9012C960FB6F894DEBF0FBECDBFCF9121
:101C9000DF911F910F91FF90EF90DF90CF90BF9059
:101CA000AF909F908F907F906F905F904F903F90FC
:101CB0002F900895FC010590615070400110D8F7F5
:101CC000809590958E0F9F1F0895FC016150704084
:101CD00001900110D8F7809590958E0F9F1F089561
:101CE0000F931F93CF93DF938C01EB018B8181FFC7
:101CF0001BC082FF0DC02E813F818C819D812817E2
:101D0000390764F4E881F9810193F983E88306C017
:101D1000E885F985802F0995009731F48E819F81A0
:101D200001969F838E8302C00FEF1FEFC801DF91E2
:101D3000CF911F910F910895FA01AA27283051F1F0
:101D4000203181F1E8946F936E7F6E5F7F4F8F4FEC
:101D50009F4FAF4FB1E03ED0B4E03CD0670F781F4B
:101D6000891F9A1FA11D680F791F8A1F911DA11D30
:101D70006A0F711D811D911DA11D20D009F4689469
:101D80003F912AE0269F11243019305D3193DEF611
:101D9000CF010895462F4770405D4193B3E00FD0C7
:101DA000C9F7F6CF462F4F70405D4A3318F0495DB2
:101DB00031FD4052419302D0A9F7EACFB4E0A69595
:101DC0009795879577956795BA95C9F700976105B7
:101DD000710508959B01AC010A2E0694579547950D
:101DE00037952795BA95C9F7620F731F841F951F02
:081DF000A01D0895F894FFCF37
:101DF80042555A5A455220496E6974202D206F6BFE
:101E0800200D0A005541525420496E6974202D2036
:101E18006F6B200D0A004C454420496E6974202DD3
:101E2800206F6B200D0A006F62737461636C65200C
:101E38003D20256428636D292C0D0A0054696D65C1
:101E4800723020496E6974202D206F6B200D0A00B6
:101E580054696D6572315F50574D20496E69742021
:101E68002D206F6B200D0A004D4F544F5220496EA4
:101E78006974202D206F6B200D0A00445554592099
:101E88003D2025642C0D0A006464697374203D208C
:101E980025640D0A00E90200028D014B011B01FFB8
:101EA80000E000C800BC00AB00A400970074006EFE
:101EB800000A0F14191E23282D32373C41464B4186
:101EC80044435F6D6178203D20253034782C0D0A1D
:101ED800004144435F6D696E203D20253034782CE5
:101EE8000D0A004144435F6D6964203D202530346C
:101EF800782C0D0A004C696E6553656E736F725FBE
:101F0800496E69742C20565F726566203D20253025
:101F180032782C0D0A0000000000000000000001CB
:101F2800020203030303040404040404040405056F
:101F38000505050505050505050505050505060647
:101F48000606060606060606060606060606060629
:101F58000606060606060606060606060606070717
:101F680007070707070707070707070707070707F9
:101F780007070707070707070707070707070707E9
:101F880007070707070707070707070707070707D9
:101F980007070707070707070707070707070808C7
:101FA80008080808080808080808080808080808A9
:101FB8000808080808080808080808080808080899
:101FC8000808080808080808080808080808080889
:101FD8000808080808080808080808080808080879
:101FE8000808080808080808080808080808080869
:101FF8000808080808080808080808080808080859
:102008000808080808080808080808080808080848
:0E20180008080808080808080808080808084A
:00000001FF
